:100000000C9454000C9473000C9473000C947300C3
:100010000C9473000C9473000C9473000C94730094
:100020000C9473000C9473000C9473000C94730084
:100030000C9473000C9473000C9473000C94730074
:100040000C9473000C9473000C9473000C94730064
:100050000C9473000C9473000C9473000C94730054
:100060000C9473000C9473000C9473000C94730044
:100070000C9473000C9473000C9473000C94730034
:100080000C9473000C9473000C947300B800BF00C0
:10009000C60006010D0114011B019B016E019B01AD
:1000A0007401840194019B0111241FBECFEFD0E4A1
:1000B000DEBFCDBF11E0A0E0B1E0E8E9F3E000E091
:1000C0000BBF02C007900D92AE30B107D9F721E007
:1000D000AEE0B1E001C01D92A031B207E1F70E948D
:1000E000A4010C94CA010C940000CF93DF9300D0BC
:1000F0001F92CDB7DEB789837B836A8389818A307B
:1001000031F48A819B81BC018DE00E94750080ECF6
:1001100090E0FC018081882F90E080729927892BE4
:10012000B1F386EC90E02981FC01208380E090E02F
:100130000F900F900F90DF91CF910895CF93DF93A1
:10014000CDB7DEB780910E0190910F01CC01A0E0F8
:10015000B0E040E050E026E030E0841B950B28172B
:10016000390708F4A1C08A5B9F4FFC010C94C101C0
:1001700081E090E090930F0180930E019AC082E09D
:1001800090E090930F0180930E0193C080E290E085
:10019000FC018081882F90E080959095837099274D
:1001A000019739F483E090E090930F0180930E0162
:1001B00080C080E290E0FC018081882F90E08095F3
:1001C000909583709927029739F484E090E090939A
:1001D0000F0180930E016DC080E290E0FC018081F0
:1001E000882F90E08095909583709927039739F434
:1001F00085E090E090930F0180930E015AC082E059
:1002000090E090930F0180930E0153C086E090E040
:1002100090930F0180930E014CC086E090E0909384
:100220000F0180930E0145C082E090E090930F0192
:1002300080930E013EC080E290E0FC018081882F17
:1002400090E08095909583709927039739F485E025
:1002500090E090930F0180930E012BC080E290E01C
:10026000FC018081882F90E080959095837099277C
:10027000019761F080E290E0FC018081882F90E09E
:100280008095909583709927029739F486E090E0E5
:1002900090930F0180930E010CC082E090E0909348
:1002A0000F0180930E0105C010920F0110920E01F4
:1002B000000080910E0190910F01CC01A0E0B0E010
:1002C00040E050E026E030E0841B950B281739070A
:1002D00080F1835B9F4FFC010C94C10188E290E0A8
:1002E00027E0FC0120832CC086E290E0FC018081A5
:1002F000893018F588E290E026E230E0F9012081AB
:100300002F5FFC01208319C086E290E0FC01808110
:100310008823A9F088E290E026E230E0F90120810C
:100320002150FC0120830BC088E290E0FC01108288
:1003300007C0000005C0000003C0000001C00000AD
:100340000000DF91CF910895CF93DF93CDB7DEB753
:1003500081E290E0FC01108282E290E02FEFFC014C
:10036000208387E290E02FEFFC01208388E290E079
:10037000FC01108210920F0110920E010E949E004B
:10038000FDCFEE0FFF1F0024001C0BBE0790F6915F
:08039000E02D0994F894FFCF61
:0E0398000000000200000000750000000000E0
:00000001FF
