:100000000C9458000C9477000C9477000C947700B3
:100010000C9477000C9477000C9477000C94770084
:100020000C9477000C9477000C9477000C94770074
:100030000C9477000C9477000C9477000C94770064
:100040000C9477000C9477000C9477000C94770054
:100050000C9477000C9477000C9477000C94770044
:100060000C9477000C9477000C9477000C94770034
:100070000C9477000C9477000C9477000C94770024
:100080000C9477000C9477000C947700BC00C300AC
:10009000F30023015301DB000B013B016B019801CD
:1000A0009D01A301A901AF01B501B501B501B501DC
:1000B00011241FBECFEFD0E4DEBFCDBF11E0A0E022
:1000C000B1E0E4ECF3E000E00BBF02C007900D925A
:1000D000AE30B107D9F721E0AEE0B1E001C01D922A
:1000E000A031B207E1F70E94BA010C94E0010C9430
:1000F0000000CF93DF9300D01F92CDB7DEB7898386
:100100007B836A8389818A3031F48A819B81BC0137
:100110008DE00E94790080EC90E0FC018081882FC6
:1001200090E080729927892BB1F386EC90E02981C9
:10013000FC01208380E090E00F900F900F90DF9102
:10014000CF910895CF93DF93CDB7DEB780910E01A5
:1001500090910F01CC01A0E0B0E040E050E028E039
:1001600030E0841B950B2817390708F4CCC08A5B54
:100170009F4FFC010C94D70181E090E090930F0118
:1001800080930E01C0C080E290E0FC018081882F46
:1001900090E081709927892B39F485E090E0909365
:1001A0000F0180930E01AFC081E090E090930F01AA
:1001B00080930E01A8C080E290E0FC018081882F2E
:1001C00090E081709927892B39F082E090E090933C
:1001D0000F0180930E0197C085E090E090930F018E
:1001E00080930E0190C080E290E0FC018081882F16
:1001F00090E081709927892B39F486E090E0909304
:100200000F0180930E017FC082E090E090930F0178
:1002100080930E0178C080E290E0FC018081882FFD
:1002200090E081709927892B39F083E090E09093DA
:100230000F0180930E0167C086E090E090930F015C
:1002400080930E0160C080E290E0FC018081882FE5
:1002500090E081709927892B39F487E090E09093A2
:100260000F0180930E014FC083E090E090930F0147
:1002700080930E0148C080E290E0FC018081882FCD
:1002800090E081709927892B39F084E090E0909379
:100290000F0180930E0137C087E090E090930F012B
:1002A00080930E0130C080E290E0FC018081882FB5
:1002B00090E081709927892B39F488E090E0909341
:1002C0000F0180930E011FC084E090E090930F0116
:1002D00080930E0118C080E290E0FC018081882F9D
:1002E00090E081709927892B39F081E090E090931C
:1002F0000F0180930E0106C088E090E090930F01FB
:1003000080930E01000080910E0190910F01CC01AD
:10031000A0E0B0E040E050E028E030E0841B950B26
:100320002817390718F1815B9F4FFC010C94D70106
:1003300088E290E0FC01108219C088E290E025E19B
:10034000FC01208313C088E290E026E3FC012083B7
:100350000DC088E290E02AE2FC01208307C088E219
:1003600090E02BE1FC01208301C000000000DF9140
:10037000CF910895CF93DF93CDB7DEB781E290E0C0
:10038000FC01108282E290E02FEFFC01208387E2E3
:1003900090E02FEFFC01208388E290E0FC011082C6
:1003A00010920F0110920E010E94A200FDCFEE0FDD
:1003B000FF1F0024001C0BBE0790F691E02D09944E
:0403C000F894FFCFDF
:0E03C4000000000200000000790000000000B0
:00000001FF
